:100A9E0020202020002020002000202020202D209B
:0E0AAE00202D20200020203A20203A20200079
:0C0A7D00012500012600012400012700D3
:10033E00E52664017019E5247015E5276401700F38
:10034E007BFF7A0A799E7D017F01120A5A801D7504
:10035E0016027B147A007D017F01120A36E528FB16
:10036E007A007516027D037F01120A36E5266401B6
:10037E00701BE52464017015E5276401700F7BFF87
:10038E007A0A79A37D067F01120A5A800FE529FBAE
:10039E007A007516027D067F01120A36E526640183
:1003AE00701BE52464027015E5276401700F7BFF56
:1003BE007A0A79A37D097F01120A5A800FE52AFB7A
:1003CE007A007516027D097F01120A36E526640150
:1003DE00701BE52464037015E5276401700F7BFF25
:1003EE007A0A79A37D017F02120A5A800FE52BFB50
:1003FE007A007516027D017F02120A36E526640127
:10040E00701BE52464047015E5276401700F7BFFF3
:10041E007A0A79A37D047F02120A5A800FE52CFB1B
:10042E007A007516027D047F02120A36E5266401F3
:10043E00701BE52464057015E5276401700F7BFFC2
:10044E007A0A79A37D077F02120A5A800FE52DFBE7
:10045E007A007516027D077F02120A36E5266401C0
:10046E007019E52464067013E5276401700D7BFF97
:10047E007A0A79A67D0B7F01020A5AE52EFB7A00D5
:0B048E007516017D0B7F02120A36225A
:10000E00AF257E00EF640270100524D3E52494061C
:10001E00748094804003E4F524EF64034E60030281
:10002E0000EB74282524F806D3E528946374809495
:10003E00804003E4F528D3E529940C748094804025
:10004E0003752901AF29EF6401601EEF6403601987
:10005E00EF64056014EF6407600FEF6408600AEF49
:10006E00640A6005EF640C700ED3E52A941F748049
:10007E0094804003752A01E52964027028E528540E
:10008E0003FF7E00700DD3E52A941D74809480408A
:10009E0014800FEF4E600ED3E52A941C748094806A
:1000AE004003752A01D3E52B941774809480400386
:1000BE00E4F52BD3E52C943B748094804003E4F557
:1000CE002CD3E52D943B748094804003E4F52DD31E
:1000DE00E52E9407748094804003752E01E5256407
:1000EE000460030201B274282524F816D3E528947F
:1000FE0063748094804003752863C3E5299401746A
:10010E00809480500375290CAF29EF6401601EEFB7
:10011E0064036019EF64056014EF6407600FEF6409
:10012E0008600AEF640A6005EF640C700EC3E52ADE
:10013E009401748094805003752A1FE5296402701F
:10014E002BE5285403FF7E007010C3E52A9401743A
:10015E008094805017752A1D8012EF4E600EC3E5F5
:10016E002A9401748094805003752A1CD3E52B9435
:10017E0017748094804003752B17D3E52C943B7431
:10018E008094804003752C3BD3E52D943B74809472
:10019E00804003752D3BC3E52E94017480948050EE
:0701AE0003752E0702033E5A
:1006FD00120003120B0B120AF41204997BFF7A0AF3
:10070D0079A87D017F01120A5A7BFF7A0A79B37DA0
:10071D00017F02120A5A1208428F25EF64017010F0
:10072D000526D3E5269402748094804003E4F526D3
:10073D00E52614600F146011240270151205E412E1
:10074D00033E800D12000E8008120499E4F524F585
:10075D0026E524FB7A007516017D0D7F01120A3600
:02076D0080B456
:03000B000209CC1B
:0909CC00C0E0C0D075D000C007E6
:1009D500758A66758CFC0523E52370020522D39480
:1009E500F4E52294014012E52770047F0180027F1F
:0909F500008F2775220075230014
:0709FE00D007D0D0D0E03299
:0C0A89000A083F065B4F666D7D077F6F1B
:10076F00EF14B40800505490078475F003A4C583A8
:10077F0025F0C5837302079C0207A00207A4020796
:10078F00A80207AC0207B40207BC0207C4D2A480B8
:10079F000ED2A48012D2A48016D2A4801AC2A4D2E0
:1007AF00A3D2A28016C2A4D2A3C2A2800EC2A4C298
:1007BF00A3D2A28006C2A4C2A3C2A274082DF8E6D7
:0D07CF00F5807F017E00120ADAE4F5802239
:080A95000628160C1F173B3761
:05000300C2B5C2B622E7
:0307DC0025F0FD08
:0207DF00A90768
:1007E100D2B5E4FBEBC394087480948050227E0060
:1007F1007401A803088005C333CE33CED8F9FFE9CD
:10080100F582EF558224FF92B4D2B6C2B60B80D4E2
:10081100E4FBEBC394087480948050227E00740141
:10082100A803088005C333CE33CED8F9FFEDF58296
:10083100EF558224FF92B4D2B6C2B60B80D4C2B5B2
:010841002294
:0208A300AD079F
:1008A500E4F9430501D2B5FBEBC394087480948049
:1008B50050227E007401A803088005C333CE33CED1
:1008C500D8F9FFEDF582EF558224FF92B4C2B6D276
:1008D500B60B80D4E4FBEBC3940874809480501766
:1008E500D2B6C2B630B40DA8037401088002C33372
:0D08F500D8FC42010B80DFC2B5C2B4AF01D8
:0109020022D2
:10049900E4FD7F8E1207DFE52875F00A84C454F065
:1004A900FFE52875F00A84EF7F8C1207DCE52975D2
:1004B900F00A84C454F0FFE52975F00A84EF7F88B7
:1004C9001207DCE52A75F00A84C454F0FFE52A75A1
:1004D900F00A84EF25F0FD7F861207DFE52B75F022
:1004E9000A84C454F0FFE52B75F00A84EF25F0FD6A
:1004F9007F841207DFE52C75F00A84C454F0FFE508
:100509002C75F00A84EF25F0FD7F821207DFE52DB7
:1005190075F00A84C454F0FFE52D75F00A84EF25BF
:10052900F0FD7F801207DFE52E75F00A84C454F0D0
:10053900FFE52E75F00A84EF25F0FD7F8A1207DFAB
:070549007D807F8E0207DFB9
:1005E4007F8C1208A3EFC4540F75F00AA4FEEF54D5
:1005F4000F2EF5287F881208A3EFC4540F75F00A54
:10060400A4FEEF540F2EF5297F861208A3EFC454DD
:100614000F75F00AA4FEEF540F2EF52A7F841208FA
:10062400A3EFC4540F75F00AA4FEEF540F2EF52B5C
:100634007F821208A3EFC4540F75F00AA4FEEF548E
:100644000F2EF52C7F801208A3EFC4540F75F00A07
:10065400A4FEEF540F2EF52D7F8A1208A3EFC45485
:0C0664000F75F00AA4FEEF540F2EF52EC7
:010670002267
:060B3200C2A58F80D2A7CE
:0B0B38000000007F0B7EBEDEFEDFFC35
:010B4300228F
:0A0B4400C2A6120B32C2A7020B3842
:100ABC00CFCDCFCECCCE12058F7C007D0A12058F08
:040ACC00ED2430FFE6
:0A0AD000D2A6120B32C2A7020B38A7
:100B0B007F38120B447F0C120B447F06120B447F71
:040B1B0001020B4484
:100B1F00EF64017004ED148003ED243F4480FF1255
:030B2F000B442252
:0A0B4E00AC03120B1FAF04020AD023
:060A5A008B128A138914BF
:100A6000120B1FE4FDAB12AA13A9148D827583002B
:0C0A7000120550FF6006120AD00D80E94C
:010A7C002257
:0A0A0500EF24FFFDEE34FFFC7F0A32
:080A0F008E178F188C198D1A47
:100A17007F017E00E4FBEBC3951AE5196480F87447
:0E0A27008098500AAC17AD1812057D0B80E8C0
:010A3500229E
:040A36008A148B157E
:100A3A00120B1FAA16EAFF7E00D3940074809480DA
:0F0A4A00400D120A05AC14AD15120ABC1A80E655
:010A5900227A
:10094E00120B1FC3EA64809480400B7F2B120AD0D7
:10095E008A208B21800E7F2D120AD0C3E49BF521B5
:10096E00E49AF520AA1FEAFF7E00D39400748094C7
:10097E0080400D120A05AC20AD21120ABC1A80E689
:01098E002246
:040903008A308B317A
:10090700120B1FAA32EAD39400748094804037EA0E
:1009170024FFFDE434FFFC7F107E00120A0FAC3089
:10092700AD31CFCDCFCECCCE12058FEF540FFEC356
:10093700940A74809480EE5004243080022437FF98
:06094700120AD01A80BF65
:01094D002287
:04098F008A358B36E4
:10099300120B1FAA37EAFF7E00D394007480948061
:1009A3004026EF24FFFDEE34FFFC7F02120A0FAC5A
:1009B30035AD36CFCDCFCECCCE12058FEF5401243B
:0809C30030FF120AD01A80CDAA
:0109CB002209
:10084200E4F51220B1137F0AFE120ADA30B1FD7FFD
:100852000A7E00120ADA75120120B0147F0A7E00A5
:10086200120ADA30B0FD7F0A7E00120ADA7512022D
:1008720020B2147F0A7E00120ADA30B2FD7F0A7EAD
:1008820000120ADA75120320B3147F0A7E00120ADC
:10089200DA30B3FD7F0A7E00120ADA751204AF1253
:0108A2002233
:1001B500E4F5387590FFC2932097137F14FE120A59
:1001C500DA3097FD7F147E00120ADA753801209621
:1001D500147F147E00120ADA3096FD7F147E001219
:1001E5000ADA7538052095147F147E00120ADA3074
:1001F50095FD7F147E00120ADA7538092094147F64
:10020500147E00120ADA3094FD7F147E00120ADA99
:1002150075380D7590FFC2922097147F147E0012D9
:100225000ADA3097FD7F147E00120ADA753802204B
:1002350096147F147E00120ADA3096FD7F147E0034
:10024500120ADA7538062095147F147E00120ADA30
:100255003095FD7F147E00120ADA75380A20941451
:100265007F147E00120ADA3094FD7F147E00120A94
:10027500DA75380E7590FFC2912097147F147E00B1
:10028500120ADA3097FD7F147E00120ADA753803F8
:100295002096147F147E00120ADA3096FD7F147EB4
:1002A50000120ADA7538072095147F147E00120AA9
:1002B500DA3095FD7F147E00120ADA75380B20942A
:1002C500147F147E00120ADA3094FD7F147E00122A
:1002D5000ADA75380F7590FFC2902097147F147E47
:1002E50000120ADA3097FD7F147E00120ADA75389B
:1002F500042096147F147E00120ADA3096FD7F14CE
:100305007E00120ADA7538082095147F147E0012D3
:100315000ADA3095FD7F147E00120ADA75380C2052
:1003250094147F147E00120ADA3094FD7F147E0047
:08033500120ADA753810AF3826
:01033D00229D
:0A0ADA00EF1FAC0670011E4C600F08
:0D0AE400007513027514C7D514FDD513FA63
:030AF10080E72279
:100AF4005389F0438901758A66758CFCC28DD28C4A
:070B0400D2A9D2AFD2B92241
:0300000002067184
:0C067100787FE4F6D8FD7581380206B8E9
:10055000BB010CE58229F582E5833AF583E0225060
:1005600006E92582F8E622BBFE06E92582F8E222AA
:0D057000E58229F582E5833AF583E49322C4
:10057D00EF8DF0A4A8F0CF8CF0A428CE8DF0A42E92
:02058D00FE224C
:10058F00BC000BBE0029EF8DF084FFADF022E4CC50
:10059F00F875F008EF2FFFEE33FEEC33FCEE9DEC19
:1005AF00984005FCEE9DFE0FD5F0E9E4CEFD22ED5F
:1005BF00F8F5F0EE8420D21CFEADF075F008EF2FA9
:1005CF00FFED33FD4007985006D5F0F222C398FD9A
:0505DF000FD5F0EA2237
:10067D000206FDE493A3F8E493A34003F68001F290
:10068D0008DFF48029E493A3F85407240CC8C3337E
:10069D00C4540F4420C8834004F456800146F6DF4D
:1006AD00E4800B0102040810204080900A7DE47E56
:1006BD00019360BCA3FF543F30E509541FFEE49342
:1006CD00A360010ECF54C025E060A840B8E493A309
:1006DD00FAE493A3F8E493A3C8C582C8CAC583CA34
:1006ED00F0A3C8C582C8CAC583CADFE9DEE780BEEC
:010A9D000058
:00000001FF
